:020000040800F2
:10000000B087002031030008735400083D40000809
:1000100071540008210E000851750008000000000E
:100020000000000000000000000000007102000855
:100030005912000800000000CD0200087D6C000885
:100040004B0300084B0300084B0300084B03000858
:100050004B0300084B0300085B1200084B03000829
:100060004B03000861120008671200084B030008E8
:10007000AD0E00084B0300084B0300084B030008BB
:100080004B0300084B0300084B0300084B03000818
:10009000250E00084B0300084B0300086D120008F2
:1000A0004B0300083D6D00084B0300084B0300089C
:1000B000596D0008656D00084B0300084B030008EC
:1000C0004B0300084B0300084B0300084B030008D8
:1000D0004B0300083D7500084B0300084B03000864
:1000E0004B0300084B0300084B0300084B030008B8
:1000F0004B0300084B0300084B0300084B030008A8
:100100004B0300084B0300084B0300084B03000897
:100110004B0300084B0300084B0300084B03000887
:100120004B0300084B030008CD0E00089111000896
:100130004B0300084B0300084B0300083D0E00086A
:10014000310E00084B0300084B0300084B03000866
:100150009D1100084B030008A91100084B0300087B
:100160004B0300084B0300084B0300084B03000837
:100170004B0300084B0300084B030008000000007D
:100180004B0300084B03000800F002F800F061F890
:100190000AA090E8000C82448344AAF10107DA45E2
:1001A00001D100F056F8AFF2090EBAE80F0013F0D3
:1001B000010F18BFFB1A43F001031847F4CF0000EA
:1001C00014D000000A444FF0000C10F8013B13F06B
:1001D000070408BF10F8014B1D1108BF10F8015BA0
:1001E000641E05D010F8016B641E01F8016BF9D193
:1001F00013F0080F1EBF10F8014BAD1C0C1B09D1EA
:100200006D1E58BF01F801CBFAD505E014F8016B5B
:1002100001F8016B6D1EF9D59142D6D370470000ED
:100220000023002400250026103A28BF78C1FBD8FF
:10023000520728BF30C148BF0B607047752900F0D6
:100240002581002070471FB50CF053FA1FBD10B573
:1002500010BD00F0B5FB1146FFF7F5FF09F00CF8F3
:1002600000F0D3FB03B4FFF7F2FF03BC07F057FC29
:100270002C4B19680868B0E8F04F80F30988BFF389
:100280006F8F4FF0000080F311887047000000006E
:1002900008480068006880F308884FF0000080F389
:1002A000148862B661B6BFF34F8FBFF36F8F00DF64
:1002B00000BF00BF08ED00E0DFF80C00016841F46A
:1002C00070010160704700BF88ED00E0EFF3098026
:1002D000BFF36F8F134B1A681EF0100F08BF20ED8D
:1002E000108A20E9F04F106009B44FF0500080F3FD
:1002F0001188BFF34F8FBFF36F8F0AF0FDFE4FF0F1
:10030000000080F3118809BC19680868B0E8F04F54
:100310001EF0100F08BFB0EC108A80F30988BFF3FD
:100320006F8F704754000020EFF305807047000086
:100330000948804709480047FEE7FEE7FEE7FEE779
:10034000FEE7FEE7FEE7FEE7FEE7FEE704480549B5
:10035000054A064B704700002D6D00088901000812
:10036000B0810020B0870020B0830020B08300203F
:10037000704753EA020C00F069802DE9F04B4FF012
:100380000006002B1FBFB3FA83F503FA05F424FA25
:1003900005F65E4012BF1643B2FA82F502FA05F482
:1003A000C5F120051EBF22FA05FC44EA0C042035E5
:1003B00056EA044C4FEA144418BF641C4FF000087E
:1003C0004FF00009904271EB030C39D3002919BF9B
:1003D000B1FA81F701FA07F6B0FA80F700FA07F6EA
:1003E000C7F120071EBF20FA07FC46EA0C0620379B
:1003F000B6FBF4FCA7EB0507103F07F01F0BCBF192
:1004000020060CFA0BFB2CFA06F644BFB346002676
:10041000202FA4BF5E464FF0000B5BEA060C08BF1E
:100420004FF0010B19EB0B09ABFB027C48EB060804
:10043000C01B06FB02CC0BFB03CC71EB0C01C1E72C
:100440000B46024641464846BDE8F08B13B54FF0D7
:1004500000004FF00001AFF30080BDE81C40704782
:100460000FB41CB5084B06AA7B446946009005985A
:1004700000F085FA04460020694600F093FA204611
:100480001CBC5DF814FB0000390500002DE9F041AB
:100490000646002410687529314616A510D0AFF322
:1004A0000080002802DA404213A507E031688A077D
:1004B00001D512A502E0490704D511A5012401E0E8
:1004C000AFF3008000210A2206F1240709E0B0FB07
:1004D000F2FCB0FBF2F302FB1C00303078541846FB
:1004E000491C0028F3D123462A463046BDE8F04196
:1004F00000F0E6B9000000002D0000002B00000015
:10050000200000002DE9F05F894604464FF0000A04
:10051000DFF874B1FB44C0F820A02046E1688847AA
:10052000002874D0252806D0D4E901219047206AFC
:10053000401C2062F1E700265F462046E1688847BC
:100540002028054607DB312D05D2781910F8200C3C
:1005500008B10643F1E7B00701D526F00406C4F858
:100560001CA00027C4F818A02A2D09D0284607F09F
:10057000CFFA38B304EB8708303DC8F8185019E0BB
:1005800059F8041B204604EB87029161E168884713
:10059000012F054618D1E069002820DA26F0200650
:1005A0001DE0D8F8180000EB800005EB4000303863
:1005B000C8F818002046E1688847054607F0A8FA01
:1005C0000028EED1012F0AD02E2D08D12046E16857
:1005D00088477F1C0546022F46F02006C4DBA06931
:1005E000002803DA404246F00106A061F00701D07E
:1005F00026F010066C2D0BD0682D09D04C2D39D06B
:100600006A2D35D0742D35D07A2D33D016E038E0F0
:10061000E1682F4620468847B842054609D16C2F2D
:1006200026D04FF48060E16806432046884705469F
:1006300004E06C2F1AD04FF4807006430DB3A5F17F
:100640004100192802D8203546F400664A4629465A
:10065000204626604E46FFF7F1FD80B101280BD001
:10066000F61D26F0070000F1080956E74020E4E7F0
:100670008020D8E70020D6E706F104094DE7284698
:1006800052E7206ABDE8F09FA0CB000040EA0103DA
:10069000024630B59B0710D14FF0013400E008C28C
:1006A00008C91D1B9D4315EAC41FF8D013F0FF01B4
:1006B00002F8011B0DD01B0AF8E711F8013B002BD3
:1006C00002F8013B05D011F8013B002B02F8013B79
:1006D000F3D130BD10B5431C02E010F8011B71B11D
:1006E0008107FAD14FF0013202C88C1A8C4314EA08
:1006F000C211F9D0C01A0A0603D0C01E10BDC01A1C
:1007000010BD0A0401D0801E10BD0902FCD0401E9D
:1007100010BD032A40F2308010F0030C00F0158069
:1007200011F8013BBCF1020F624498BF11F801CBF4
:1007300000F8013B38BF11F8013BA2F1040298BF59
:1007400000F801CB38BF00F8013B11F0030300F0C3
:100750002580083AC0F0088051F8043B083A51F867
:1007600004CBA0E80810F5E7121D5CBF51F8043B6C
:1007700040F8043BAFF30080D20724BF11F8013BDF
:1007800011F801CB48BF11F8012B24BF00F8013B41
:1007900000F801CB48BF00F8012B704710B5203A94
:1007A000C0F00B80B1E81850203AA0E81850B1E82A
:1007B0001850A0E81850BFF4F5AF5FEA027C24BFE0
:1007C000B1E81850A0E8185044BF18C918C0BDE8D7
:1007D00010405FEA827C24BF51F8043B40F8043BA0
:1007E00008BF7047D20728BF31F8023B48BF11F855
:1007F000012B28BF20F8023B48BF00F8012B7047AF
:1008000002F0FF0343EA032242EA024200F002B888
:100810004FF000020429C0F0128010F0030C00F029
:100820001B80CCF1040CBCF1020F18BF00F8012BA7
:10083000A8BF20F8022BA1EB0C0100F00DB85FEA75
:10084000C17C24BF00F8012B00F8012B48BF00F841
:10085000012B70474FF0000200B5134694469646B0
:10086000203922BFA0E80C50A0E80C50B1F12001C3
:10087000BFF4F7AF090728BFA0E80C5048BF0CC071
:100880005DF804EB890028BF40F8042B08BF7047CF
:1008900048BF20F8022B11F0804F18BF00F8012B41
:1008A0007047704770477047704710B500F080F888
:1008B000006810BD10B5044600F07AF8046010BD61
:1008C0002DE9F0470D4699469246044600F124086A
:1008D0000168880604D5E06921F01001216000E07C
:1008E0000120A84201DD471B00E00027A1697A1919
:1008F00002EB0900081AA0612078C00602D4204645
:10090000AFF30080002608E0D4E901211AF80600C0
:100910009047206A401C761C20624E45F4DB20780C
:10092000C0060AD52046AFF3008006E0D4E90121D5
:1009300030209047206A401C2062381EA7F1010732
:10094000F4DC07E0D4E9012118F805009047206A9B
:10095000401C2062281EA5F10105F3DC2046AFF300
:1009600000802078000602D50220BDE8F087012033
:10097000FBE7000001694A1C02610878704700B576
:100980008FB0CDE901310021059105497944CDE9C8
:10099000031011466846FFF7B5FD0FB000BD00001B
:1009A000E5FFFFFF0A6802F8010B0A6070470000CC
:1009B000004870474C810020004870474C8100205F
:1009C0007546FFF7F9FFAE4605006946534620F02D
:1009D0000700854618B020B5FFF7B8FCBDE82040F9
:1009E0004FF000064FF000074FF000084FF0000BEB
:1009F00021F00701AC46ACE8C009ACE8C009ACE89E
:100A0000C009ACE8C0098D46704710B50446AFF385
:100A100000802046BDE81040FFF724BCB7EE000A76
:100A200080ED000A9FED040A80ED010A80ED020AC4
:100A300080ED030A704700000000000093EC033AC9
:100A4000D2EC031A91EC030A04F058BA01221021E7
:100A5000014801F039BC00000000024000221021D2
:100A6000014801F031BC000000000240F0B587B041
:100A700014216846FFF7EEFE1848016841F00201B4
:100A80000160016801F002010591016841F0010176
:100A900001600068124E00F0010005900122102153
:100AA000304601F011FC0F4F01221146384601F08B
:100AB0000BFC01241020CDE90004022569463046D4
:100AC000CDE9024501F008FB0094694638460194DF
:100AD000CDE9024501F000FB07B0F0BD303802401F
:100AE000000002400004024001221146014801F0CA
:100AF000EBBB00000004024000220121014801F08C
:100B0000E3BB00000004024030B5437804781B02C8
:100B10001BB2234300EE103A1B4CB8EEC00AD4EDD2
:100B2000000A20EE200A81ED000AC37885781B02B6
:100B30001BB22B4300EE103AD4ED000AB8EEC00A07
:100B400020EE200A81ED010A437904791B021BB2D1
:100B5000234300EE103AB8EEC00A20EE200ADFED83
:100B60000B0A81ED020A017AC3790904807941EA0E
:100B70000321014300EE101AB8EE400A20EE200ACD
:100B800082ED000A30BD00009803002000401C42A6
:100B900070470AF087B807F0BDBB000010B5427877
:100BA0000378120212B21A4300EE102A124BB8EE6A
:100BB000C00AD3ED010A20EE200A81ED000AC278B6
:100BC0008478120212B2224300EE102AD3ED010AF9
:100BD000B8EEC00A20EE200A81ED010A42790079C0
:100BE000120212B2024300EE102AB8EEC00A20EE42
:100BF000200A81ED020A10BD9803002010B5FFF70E
:100C000035FFFFF7C5FF07F06BF808B1802402E05D
:100C100006F0D2FF044607F031FA10B144F040006C
:100C200010BD07F0BDF9204310BD00002DE9FC41C7
:100C30000746002016460D4600900190FFF70EFF74
:100C4000922000F0BDF806226946122000F09AF8C2
:100C5000FFF7FCFE9DF801009DF80010000200B2B5
:100C6000084300EE100A464CB8EEC00AD4ED000A64
:100C700020EE200A85ED000A9DF803009DF8021081
:100C8000000200B2084300EE100AD4ED000AB8EEEC
:100C9000C00A20EE200A85ED010A9DF805009DF8A6
:100CA0000410000200B2084300EE100AB8EEC00AB9
:100CB00020EE200A85ED020AFFF71EFF0822694692
:100CC000002000F05FF8FFF70FFF9DF800000F28ED
:100CD00030D19DF803009DF80210000200B20843D5
:100CE00000EE100AD4ED010AB8EEC00A20EE200A88
:100CF00087ED000A9DF805009DF80410000200B27F
:100D0000084300EE100AD4ED010AB8EEC00A20EE46
:100D1000200A87ED010A9DF807009DF806100002E1
:100D200000B2084300EE100AB8EEC00A20EE200A16
:100D300087ED020AFFF792FEA22000F041F802229E
:100D40006946222000F01EF8FFF780FE9DF80000A3
:100D50009DF80110C00040EA5110B0F5806F01DB32
:100D6000A0F5006000EE100AB4EE001AF8EEC00A1A
:100D7000B3EE070A00EE810A86ED000ABDE8FC81A9
:100D80009803002070B514460D4640F0800000F036
:100D900017F806E0552000F013F8641E05F8010B63
:100DA000E4B2002CF6D170BD10B50C4640F08000C6
:100DB00000F006F8552000F003F8207010BD000088
:100DC00001B582B04FF47A700090012301AA02A904
:100DD000024802F091F99DF804000EBDDC060020E7
:100DE00002784078D20042EA5010B0F5806F01DB03
:100DF000A0F5006000EE100AB4EE001AF8EEC00A8A
:100E0000B3EE070A00EE810A81ED000A704710B5C3
:100E10000C46FFF7D5FF2046BDE81040FFF7D0BFD6
:100E2000FEE70000014800F0CABC000008060020F0
:100E3000014800F0C4BC000030060020014800F06A
:100E4000BEBC00003006002030B58BB028216846BB
:100E5000FFF700FD002401200194CDE906400E2596
:100E600003940494CDE9080505940094029469461E
:100E70000D4800F0A9FB0C4800F0E6FE02210A48EC
:100E800000F022FB084869462830CDE9044500F00F
:100E90009BFB0548283000F0D7FE0348022128308C
:100EA00000F012FB0BB030BD0806002010B505485D
:100EB00000F058FF07F01AFC0146BDE81040024858
:100EC00007F018BCB80A0020140900202DE9F05FD3
:100ED000A748A84BA84CC06CA64DA74EA54F0068CC
:100EE000A449DFF89492DFF88CA2DFF88CB2DFF827
:100EF00084E2A14A483B603418351836303F09F186
:100F000078090AF1300A4FF4006C0BF1300BAEF1A6
:100F1000180E884223D99749543926E0A84233D184
:100F20004FF020080AE0504535D1E04606E000BF0A
:100F30004FF4001802E000BF4FF0006811EA080FFC
:100F40007CD08C49884253D9904205D0984203D036
:100F5000A04201D0A8422FD14FF0200C45E0864995
:100F6000A831884203D983495839096805E0824984
:100F7000483188428149F8D949689042D0D0984296
:100F8000CED0A042CCD0C9E7B042CED0B842CCD06F
:100F90004845CAD0C7E75845CAD07045C8D0DFF821
:100FA000D88108F190084045C2D0DFF8C88108F127
:100FB00048084045C0D1BBE7B04216D0B84214D073
:100FC000484512D0504510D0584509D0704507D03B
:100FD00069499031884203D066494831884202D13C
:100FE0004FF4001C01E04FF0006C62484C382AE0DE
:100FF0006149A831884229D9904205D0984203D04E
:10100000A04201D0A84202D14FF0200C19E0B0421A
:1010100017D0B84215D0484513D0504511D0584587
:1010200009D0704507D054499031884203D05149C6
:101030004831884203D14FF4001C02E095E04FF0A4
:10104000006C4C485038C0F800C052E04A49483162
:10105000884227D9904205D0984203D0A04201D0BF
:10106000A84202D14FF0200C18E0B04216D0B8428E
:1010700014D0484512D0504510D0584509D070457D
:1010800007D03D499031884203D03A4948318842DF
:1010900002D14FF4001C01E04FF0006C3748C0F85B
:1010A0000CC026E0904205D0984203D0A04201D067
:1010B000A84202D14FF0200C18E0B04216D0B8423E
:1010C00014D0484512D0504510D0584509D070452D
:1010D00007D029499031884203D0264948318842B7
:1010E00002D14FF4001C01E04FF0006C2348C0F81F
:1010F00008C0234C207880070CD5207820F002000F
:101100002070207840F004002070012211461D4814
:1011100001F0DAF860781C4D80070CD5607820F07B
:1011200002006070607840F00400607001221021BD
:10113000284601F0C9F8A07880070CD5A07820F0E7
:101140000200A070A07840F00400A07001221021DD
:10115000284601F0B9F807F087FE2078400704D54B
:101160000A48016841F001010160BDE8F09F0000FC
:10117000DC0600205864024010600240006002401B
:101180006C0400200004024000000240103C0140BA
:10119000014800F0E7BD000094070020014800F07E
:1011A000E1BD0000F8090020014800F0DBBD0000AF
:1011B000580A002001681823CAB2103AB2FBF3F2B1
:1011C000054B6FF30901032A9B5CC36500D9091D18
:1011D000816508467047000050C7000810B50146F9
:1011E00000208B698A6A4FF0C07453B1B3F5005F79
:1011F00015D072B1012A0CD0022A0AD0032A09D1D3
:1012000004E01AB1012A06D0022A03D1C96AC90131
:1012100000D5012010BDC96AA142FAD010BD002A34
:10122000F7D0012AF2D0022AF3D0032AF3D010BD5E
:1012300030B50468256825F480252560046863605E
:101240008368402B036803D099600068C26030BD9A
:101250009A600068C16030BD7047012000F030BF67
:10126000082000F02DBF102000F02ABF10B520206C
:1012700000F026FFBDE81040402000F021BF72B60C
:10128000FEE700002E4810B59FED2C0A022280EDEB
:10129000000A9FED2C0A334B80ED010AB3EE040ADD
:1012A00080ED030A9FED280A114680ED040A9FEDA8
:1012B000270A80ED050A9FED260A80ED060A9FEDBC
:1012C000250A80ED070A80ED080AB1EE040A80EDD8
:1012D000090A9FED210A80ED0A0A9FED200A80EDA0
:1012E0000B0A9FED1F0A80ED0C0AB43806F018FCBB
:1012F0001C4B1348022210331146AC3806F010FC88
:1013000018490F489439F83807F038FF154B0C4846
:101310000222B4331146483806F002FC114B08484B
:101320000222C4331146403806F0FAFB0D49044846
:101330002031BDE810408C3807F020BF0000484243
:10134000487B002000006C420000F0420000164381
:101350000000A042CDCC4C3E9A99193E00005C435F
:1013600000003442F00100202DED028B012009F035
:1013700099FCB2EE048ADFED4F8A4F4FDFF83C91C3
:101380004F4E4FF00108012009F08CFC30783844B2
:1013900010F8021C0D29F6D110F8010C3D46344618
:1013A0000A28F0D16A782D2A02D16078401C60703A
:1013B00094ED010A6078295CA1F13003092B0AD869
:1013C00000EE901A401C6070F8EE600A40EE080AC9
:1013D00030EEE80AEEE7C1B284ED010A695C2E291D
:1013E0001ED1A4F80280401C60704FF6FF7C0FE015
:1013F00000EE901A6188401CF8EE600A01EB810152
:101400000CEA4101618040EE080A607030EEE80AA3
:10141000C0B2295CA1F13003092BE9D984ED010A9E
:101420002D2A03D1B1EE400A84ED010A6088F0EE66
:10143000400A00EE100A4046B8EE401A80EE810ADB
:1014400084ED010AA4F80280397861390C292AD286
:10145000DFE801F006090C0F1215181B1E212427C6
:1014600089ED290A1FE089ED2A0A1CE089ED2B0A83
:1014700019E089ED3B0A16E089ED3C0A13E089ED9D
:101480003D0A10E089ED050A0DE089ED060A0AE043
:1014900089ED070A07E089ED170A04E089ED180ACB
:1014A00001E089ED190A9FED070A84ED010A7070C9
:1014B00069E7000000004042187D0020C87B002042
:1014C000640400200000000090F82020012A07D0CA
:1014D000022A05D0416A41F480214162012070470F
:1014E000006842690A43426100207047F0B590F8F5
:1014F00020500468A468012D05D0022D03D0416A54
:1015000041F480215DE014F0406F01D1E50055D534
:10151000C4F30164022C03D9416A41F4000150E094
:101520000125A5401D608D684FF4C0739DB1CE6844
:1015300035434E6845EAC605066803EB0417F551C6
:101540004FF4C275076805EB04150E697E51097DDD
:10155000012905D009E00E88CD6845EA4655EBE73C
:1015600001684E5946F480764E511179D5795679F5
:1015700041EA056195792D0445EA062529434FF492
:10158000C676056806EB0416A9511178D57841EAAC
:101590000561957852782D0445EA022211434FF4F3
:1015A000C475026805EB04155151006803EB041182
:1015B000425842F0010242500020F0BD416A41F41D
:1015C000001141620120F0BD10B590F82020012AE1
:1015D00007D0022A05D0416A41F4802141620120EE
:1015E00010BD3B48D0F8002242F00102C0F80022B2
:1015F000D0F8002222F47C52C0F80022D0F8002259
:101600004B6A42EA0322C0F800220A7D02F01F035F
:1016100001229A40D0F81C329343C0F81C32CB69A7
:10162000B3B9D0F80C329343C0F80C328C894B68B4
:1016300064F31F434C6900EBC404C4F840320C89C6
:101640000B6864F31F434C6900EBC404C4F84432D4
:10165000CB69012B16D1D0F80C321343C0F80C32F1
:101660000C884B6864F31F434C6900EBC404C4F856
:1016700040320C89CB6864F31F434C6900EBC4040F
:10168000C4F844328B69002BD0F804320ED01343D7
:10169000C0F804320B69002BD0F8143208D0134381
:1016A000C0F81432096A012904D008E09343EFE737
:1016B0009343F5E7D0F81C121143C0F81C12D0F880
:1016C000001221F00101C0F80012002010BD00003E
:1016D00000640040704730B590F82040012C05D0E0
:1016E000022C03D0416A41F480215DE004680029A6
:1016F00055D02469A40754D04FF4D874056804EB7E
:1017000001142D5915F00405956005682D594ED02A
:10171000ED08556005682C5904F00204D4604FF4BC
:10172000DA74056804EB01142D5905F00F051561F5
:1017300005682D59C5F30725956105682C59240CBA
:1017400054614FF4DC72046802EB0112A4581C705F
:101750000468A458240A5C700468A458240C9C7083
:101760000468A258120EDA704FF4DE72046802EBBD
:101770000112A4581C710468A458240A5C710468FE
:10178000A458240C9C710468A258120EDA710068E7
:1017900081B1016941F020010161002030BDE468A0
:1017A000A8E7416A41F400114162012030BD6D0D8E
:1017B0001560AFE7C16841F02001C160EDE72DE998
:1017C000F05F0546006800244669D0F804908768F9
:1017D000D0F80CB0D0F810A0D0F81880F10748D09D
:1017E000F90714D001218160B80703D5284600F01D
:1017F00058FA0CE0780702D54FF4006407E0380788
:1018000002D54FF4805402E0284600F049FAF8056A
:1018100016D529684FF480708860B80503D528462E
:1018200000F041FA0CE0780502D544F4005407E0DA
:10183000380502D544F4804402E0284600F032FA2C
:10184000F80316D529684FF480308860B80303D5B3
:10185000284600F02AFA0CE0780302D544F400444C
:1018600007E0380302D544F4803402E0284600F053
:101870001BFA300707D55FEACB6004D52968102032
:1018800044F40074C86070074FF0080707D55FEA9A
:101890000B7004D52868C760284600F0A1F9B0078E
:1018A00006D52868C068800702D0284600F09AF95B
:1018B000700607D55FEACA6004D52968102044F491
:1018C00080640861B00607D55FEA0A7004D528680D
:1018D0000761284600F0B4F9F00606D528680069CB
:1018E000800702D0284600F0ACF9B00308D55FEAC3
:1018F000C96005D5296810204860284600F0A2F983
:10190000F00307D55FEA097004D5286847602846C8
:1019100000F0CCF9300446D55FEA497040D5F005B7
:1019200004D55FEAC87001D044F00104B00504D5C5
:101930005FEA887001D544F00204700504D55FEABF
:10194000487001D544F00404300529D518F0700F13
:1019500026D008F07000402815D006DC102809D0E9
:1019600020280AD0302816D10AE050280ED060284E
:1019700011D10EE044F008040DE044F010040AE038
:1019800044F0200407E044F0400404E044F0800404
:1019900001E044F480742868816921F0700181615C
:1019A000296804204860002C05D0686A20436862DA
:1019B0002846FFF78FFEBDE8F09F70B5040003D006
:1019C00094F8200010B104E0012070BD204600F022
:1019D00081F82068016841F00101016000F07AFCA3
:1019E0000546052604E000F075FC401B0A2811D8C6
:1019F00020684068C007F6D02068016821F0020125
:101A0000016000F067FC05460BE000F063FC401B42
:101A10000A2806D9606A40F40030606284F82060C9
:101A2000D2E7206840688007EFD4207E0128206834
:101A300001683DD021F080010160607E01282068AE
:101A4000016838D021F040010160A07E01282068A3
:101A5000016833D021F020010160E07E0128206878
:101A600001682ED041F010010160207F012820681C
:101A7000016829D021F008010160607F01282068F9
:101A8000016824D021F004010160D4E90201084377
:101A9000D4E90412114308436168491E08432168D0
:101AA000C86100206062012084F82000002070BD21
:101AB00041F08001C0E741F04001C5E741F020015D
:101AC000CAE721F01001CFE741F00801D4E741F067
:101AD0000401D9E7F0B587B0044614216846FEF743
:101AE000B9FE3A4B3A48DFF8E0E01968D4F800C094
:101AF000374A03250226092710300024491CF445E3
:101B000022D11960012907D1016841F000710160FB
:101B1000006800F000700590106840F00800106048
:101B20001068CDE9005600F00800CDE90470694660
:101B30002848CDE9024500F0CFFA00220521142003
:101B400000F008FF14203AE0DFF88CE0F44538D1CB
:101B5000D0F800C04CF0806CC0F800C0D0F800C0D5
:101B600001290CF0806CCDF814C0196007D1016810
:101B700041F000710160006800F00070059010688D
:101B800040F002001060106802AB00F00200059007
:101B90006020CDE9000683E8B00069460F4800F0F8
:101BA0009BFA002205213F2000F0D4FE3F2000F0E8
:101BB000C3FE00220521402000F0CCFE402000F0B2
:101BC000BBFE07B0F0BD000000640040080000202C
:101BD00030380240000C024000680040000402401F
:101BE0007047000010B5044600681149884209D1C9
:101BF000104B114A00212046FFF76DFD0D490E489C
:101C000006F0B2FA0D49206888420FD1094B0A4A02
:101C100008331C3200212046FFF75DFD05490648C8
:101C20000831BDE810401C3006F0ECBA10BD0000D1
:101C3000006400400C000020D00500200068004037
:101C4000704770477047000070B5044690F8200058
:101C5000012804D0606A40F40020606218E002208D
:101C600084F820002068016821F00101016000F083
:101C700031FB05460EE000BF00F02CFB401B0A289C
:101C800008D9606A40F400306062052084F82000C2
:101C9000012070BD20684068C007EDD1606270BD52
:101CA00070477047704770477047704770472DE91D
:101CB000F0410446876D00F00DFB064694F83500B0
:101CC0000025022806D08020606584F83450012069
:101CD000BDE8F0812068016821F0160101602068EC
:101CE000416921F080014161206C08B9A06C20B1EC
:101CF0002068016821F0080101602068016821F076
:101D0000010101600CE000F0E5FA801B052807D90D
:101D100020206065032084F8350084F83450D7E72C
:101D200020680068C007EED194F85C103F2088401E
:101D3000B860012084F8350084F834500020C7E7EB
:101D400090F83510022903D08021416501207047A9
:101D5000052180F835100068016821F0010101605B
:101D6000002070472DE9F84304464FF00009CDF8F4
:101D7000009063484FF41651A56D0068B0FBF1F771
:101D80002E6894F85C10082000FA01F131420FD05F
:101D900021680A6852070BD50A6822F004020A601B
:101DA00094F85C108840A860606D40F001006065A8
:101DB00094F85C104FF0010808FA01F0304208D0A6
:101DC00021684969090604D5A860606D40F00200E9
:101DD000606594F85C1004208840304208D0216887
:101DE0000968890704D5A860606D40F0040060654B
:101DF00094F85C1010208840304218D0216809689F
:101E0000090714D5A86020680168490304D5006853
:101E1000000308D5A16C07E00168C90503D4016877
:101E200021F008010160216C09B12046884794F82F
:101E30005C1020208840304231D021680968C906F2
:101E40002DD5A86094F8350005282068016806D0D3
:101E5000490347D5006800031DD4616C1CE021F0E4
:101E6000160101602068416921F080014161206C08
:101E700008B9A06C20B12068016821F00801016058
:101E800094F85C103F208840A86084F8358084F87E
:101E90003490216D1FE0E16B09B120468847606DE9
:101EA00000282BD0606DC00714D0052084F83500C1
:101EB0002068016821F0010101600098401C009039
:101EC000B84203D820680068C007F6D184F835808E
:101ED00084F83490E16C002910D001B02046BDE8B0
:101EE000F04308470168C905D5D4016821F0100105
:101EF000016084F8358084F83490CCE7BDE8F8833D
:101F0000500000202DE9F041044600F0E3F90646B8
:101F10005CB1022084F83500002584F83450206834
:101F2000016821F0010101600DE00120BDE8F081B0
:101F300000F0D0F9801B052805D92020606503201A
:101F400084F83500F2E720680068C007F0D1226805
:101F5000116820480140D4E901031843D4E903364D
:101F60003343184363691843A3691843E36918436B
:101F7000236A18430843616A042903D1D4E90B1387
:101F800019430843106020684069666A20F0070121
:101F900030460E43012704280CD1A06A0643E06AAC
:101FA00040B12046FFF71AF920B14020606584F85F
:101FB0003570BAE7206846612046FFF7FBF894F8D1
:101FC0005C203F2191408160656584F83570002078
:101FD000ACE700003F8010F02DE9F0410446866D2B
:101FE00090F83400002501280DD0012084F8340039
:101FF00094F835700020012F07D084F834000225B2
:102000002846BDE8F0810220FBE7022784F83570FE
:1020100060652046FFF70CF994F85C103F2088407B
:10202000B0602068016841F016010160206C20B1A9
:102030002068016841F0080101602068016841F0F2
:1020400001010160DCE7000010B51B4C10281AD01C
:10205000202821D008282AD0012813D109F0B8FC63
:1020600001280FD004F10C01206908F06BFFE06833
:10207000002807D011494FF080500860BFF34F8F00
:10208000BFF36F8F10BD607840F001006070A078E2
:1020900040F00100A07003E0207840F001002070C3
:1020A00020790028EED0BDE8104006F0DDBEE078D3
:1020B00040F00100E07010BD6C04002004ED00E071
:1020C000044910B50A68024202D00860FFF7BCFF5D
:1020D00010BD0000143C01402DE9F84FDFF8BCA111
:1020E0000022012503264FF00F090AF1040BAAF183
:1020F000040E00BF0B6805FA02F42340A34270D11E
:102100000F7907F00307012F01D0022F16D187683E
:102110004FEA420806FA08FC27EA0C07D1F80CC07F
:102120000CFA08FC4CEA070CC0F808C04768A74343
:102130000C79C4F3001494403C4344600C79E443AC
:10214000A4070AD0C4684FEA420C06FA0CF7BC4355
:102150008F6807FA0CF72743C7600C7904F0030473
:10216000022C12D1D40800EB840CDCF82040570775
:10217000FF0E09FA07F824EA0804D1F8108008FADB
:1021800007F848EA0408CCF8208004684FEA420CBB
:1021900006FA0CF7BC430F7907F0030707FA0CF7B0
:1021A000274307604C6814F4403F70D03C4C2768CC
:1021B00047F480472760246822F0030704F4804432
:1021C0000094384C07EB040CDCF8084897074FEAFA
:1021D000177809FA08F7BC43334FB84202D10027F9
:1021E00024E054E0314FB84201D101271EE0304FC6
:1021F000B84201D1022719E02E4FB84201D103277E
:1022000014E02D4FB84201D104270FE02B4FB84204
:1022100001D105270AE02A4FB84201D1062705E07F
:10222000284FB84201D1072700E0082707FA08F72E
:102230002743CCF80878DAF800405746D1F804C0B4
:102240009C435FEACC2C00D51C433C60DBF800408B
:102250005F46D1F804C09C435FEA8C2C00D51C4338
:102260003C60DEF800407746D1F804C09C435FEA4A
:102270008C3C00D51C433C60084F083F3C68D1F8BB
:1022800004C09C435FEACC3C00D51C433C60521C1C
:10229000102AFFF42FAFBDE8F88F0000083C014082
:1022A0004438024000300140000002400004024077
:1022B00000080240000C02400010024000140240DE
:1022C00000180240001C02400AB1816170470904F5
:1022D000FBE70000014880687047000040000020D4
:1022E00070B5040025D094F83D00002520B984F88D
:1022F0003C50204600F04CFA242084F83D00206831
:10230000016821F0010101602068016841F4004189
:1023100001602068016821F40041016000F006FCC2
:102320004D4A6168914201D84C4900E04C498842CD
:1023300001D2012070BD4B492368B0FBF1F15E680A
:1023400026F03F060E435E606368934206D94FF461
:10235000967359434FF47A73B1FBF3F12368491C28
:102360001E6A26F03F06314319626168914210D817
:102370004900401EB0FBF1F2521CC2F30B02042ACA
:1023800001D2042022E0B0FBF1F0401CC0F30B00AE
:102390001CE0A268F2B301EBC10303EB0116431E7C
:1023A000B3FBF6F35B1C43F480431B0549D092B3A7
:1023B00001EBC10202EB0111401EB0FBF1F0401C29
:1023C000C0F30B0040F4804040F400402168CA692B
:1023D0004CF6FF739A431043C861D4E907100143D8
:1023E0002068026822F0C00211430160D4E90301B1
:1023F00001432068826848F2FF339A4311438160A9
:10240000D4E9050108432168CA6822F0FF0210439D
:10241000C86001E00EE016E02068016841F00101AB
:1024200001602564202084F83D00256384F83E5037
:10243000002070BD01EB4106431EB3FBF6F35B1CAD
:10244000B3E70120C2E701EB4101401EB0FBF1F010
:10245000401CC0F30B00B7E7A086010080841E007B
:1024600000093D0040420F002DE9FF4F83B09A461E
:10247000DDE9119793460446DDF84080FFF72AFF17
:10248000054694F83D00202870D119230122714996
:102490002046009501F0E2FE0028F5D194F83C00BA
:1024A000012863D0012084F83C0020680168C90736
:1024B00003D1016841F0010101602068016821F445
:1024C00000610160222084F83D00402084F83E0035
:1024D00000262664C4F82480A4F82A90608D208504
:1024E0005D48E062CDE9007553465A46204604999E
:1024F00001F0BCFD00287CD1208DD0B1012821D075
:102500000228206824D0416980690090208D03282A
:1025100069D801282BD0514902283B464FF00002D0
:10252000009559D08846204601F098FE002860D1D9
:102530003CE02068416981690091016841F40071C3
:10254000016077E02068016821F480610160F0E7B4
:10255000016821F4806101602068016841F4006134
:102560000160206841698069009063E06FE02A465D
:102570003946204601F0F1FE98BB20680069616A87
:1025800008704EE02068016841F400710160206825
:102590000069616A0870606A401C6062218D491E92
:1025A0002185618D491E6185216838E020680168B8
:1025B00021F48061016020680069616A0870606AC6
:1025C000401C6062208D401E2085608D401E60850D
:1025D0003B46002241460095204601F03FFE00B9EF
:1025E000D0E706E0FFE72A463946204601F0B5FE6F
:1025F00018B1012007B0BDE8F08F20680069616A5A
:102600000870606A401C6062218D491E2185618DC1
:10261000491E618521684A69D24352070AD4096973
:102620000170606A401C6062208D401E2085608DB4
:10263000401E6085208D00287FF468AF202084F83C
:102640003D0084F83E6084F83C600020D2E7022020
:10265000D0E70000020010000000FFFF04000100AE
:102660002DE9FF4F83B09A46DDE911979346044662
:10267000DDF84080FFF72EFE054694F83D00202847
:102680007FD11923012240492046009501F0E6FD43
:10269000002876D194F83C00012872D0012084F8FB
:1026A0003C0020680168C90703D1016841F00101BD
:1026B00001602068016821F400610160212084F834
:1026C0003D00402084F83E0000262664C4F82480A3
:1026D000A4F82A90608D20852C48E062CDE9007531
:1026E00053465A462046049901F03EFD70B930E049
:1026F0002A463946204601F063FE58B1206C042872
:1027000004D12068016841F400710160012007B024
:10271000BDE8F08F606A216800780861606A401C3B
:102720006062218D491E89B22185628D521E6285AB
:1027300022685369DB435B070BD469B100781061F1
:10274000606A401C6062208D401E2085608D401EA6
:102750006085208D0028CBD12A463946204601F0DD
:1027600057FD0028CAD154F83D0B016841F40071AF
:102770000160202004F81E09E67766770020C6E78E
:10278000FFE70220C3E70000020010000000FFFF87
:10279000F0B587B0044614216846FEF75BF81D4982
:1027A0002068884233D11C480024016841F00401AC
:1027B0000160016801F004010591016841F0010127
:1027C00001600068122500F0010005904FF40070D0
:1027D000CDE9000502AA0326042782E8D000694655
:1027E0000E48FFF779FCB801CDE9000502AA694659
:1027F00082E8D0000A48FFF76FFC074810300168F4
:1028000041F400010160006800F40000059007B089
:10281000F0BD0000005C004030380240000802407B
:1028200000000240024881680278114481607047CC
:10283000400000200B4810B5016841F400710160B0
:10284000016841F480610160016841F480710160B8
:10285000032000F09FF80F2000F006F800F050F879
:10286000002010BD003C024030B50546204887B02E
:102870000024016841F001010160006806A900F030
:102880000100009001A800F031F90498B0B100F007
:102890004DF9400017494FF08042B0FBF1F1164866
:1028A000491E026040F2E732C0E90324C0E9011486
:1028B000846100F093FD040003D015E000F036F9C8
:1028C000E8E70D4800F006FE04000DD11C2000F0E2
:1028D00033F8102D07D2002229461C2000F03AF8C8
:1028E0000648056000E0012407B0204630BD000026
:1028F0004038024040420F00180B002044000020E6
:102900000C4882B0016841F480410160006800F425
:10291000804000900748001F016841F0805101602D
:102920000068002200F0805000900F21901E02B03D
:1029300000F010B844380240002809DB00F01F0204
:10294000012191404009800000F1E020C0F8001111
:1029500070470000F0B40E4B1B680C46C3F3022313
:10296000C3F10705042D00D90425191D072901D23B
:10297000002300E0DB1E012606FA05F1491E214076
:1029800099409E40761E16403143F0BC04F053BE81
:102990000CED00E0064900F0070208684FF6FF035F
:1029A000184040EA0220034A1043086070470000C4
:1029B0000CED00E00000FA052DE9F0470E46050099
:1029C00065D0DFF81481D8F80000F7B200F00700F6
:1029D000B04207D288F80070D8F8000000F0070075
:1029E000B04254D128683D4C810712D5400703D529
:1029F000206840F4E05020602878000703D5206864
:102A000040F4604020602068A96820F0F00008438E
:102A100020602878C0072DD030496868083901281F
:102A200012D0022813D0032811D009688907002981
:102A30002DDA216821F0030101432160FFF74AFCF0
:102A4000814641F2883A0EE009688903EFE7096898
:102A50008901ECE7FFF73EFCA0EB0901514502D9E3
:102A60000320BDE8F0872068696800F00C00B0EB37
:102A7000810FEFD1D8F80010404601F00701B142B4
:102A800007D90770006800F00700B04201D00120AC
:102A9000E7E72878400705D52068E96820F4E0508A
:102AA000084320602878000706D52068296920F4AB
:102AB000604040EAC100206000F058F82168084AF0
:102AC000C1F30311515CC84006490860064800681C
:102AD000FFF7CAFE0020C4E7003C0240083802406D
:102AE00058C7000850000020440000200F22026058
:102AF0000C4A136803F003034360136803F0F00308
:102B00008360136803F4E053C36012684FF4E0532A
:102B100003EAD20202610448006800F0070008607E
:102B20007047000008380240003C02400448054954
:102B300000680968044AC1F38221515CC8407047AB
:102B4000500000200838024068C7000804480549C2
:102B500000680968044AC1F34231515CC8407047BB
:102B6000500000200838024068C70008154810B51A
:102B7000006810F00C02144813D01449042A0FD036
:102B8000082A0ED10F4C241F2268236802F03F024E
:102B90005B0207D52068C0F38810A0FB010106E0A6
:102BA000084610BD2168C1F38811A1FB0001002374
:102BB000FDF7DFFB2168C1F30141491C4900B0FB6F
:102BC000F1F010BD083802400024F400001BB700EB
:102BD0002DE9F84F04006ED02078DFF84C93C00741
:102BE000A9F104054AD009F104000168C1F381018B
:102BF000012908D00068C0F3810002280AD1D9F861
:102C00000000400206D52868800337D56068002898
:102C1000E1D033E06068B0F5803F10D0B0F5A02F70
:102C2000286810D020F480302860286820F48020A4
:102C300028606068A8B1FFF74DFB06460DE02868E4
:102C400040F48030F4E740F480202860F7E700BFCC
:102C5000FFF740FB801B642873D828688003F7D5F2
:102C60000CE0FFF737FB064605E000BFFFF732FB3D
:102C7000801B6428F0D828688003F7D42078DFF818
:102C8000AC8280074FF0000A3ED5A748001D0168BE
:102C900011F00C0F08D00068C0F3810002280BD19E
:102CA000D9F80000400207D42868800716D5E068EC
:102CB000012800D112E033E1E068B8B10120C8F882
:102CC0000000FFF707FB064605E000BFFFF702FB29
:102CD000801B0228C0D828688007F7D5286821699A
:102CE00020F0F80040EAC10028600DE0C8F800A01C
:102CF000FFF7F0FA064604E0FFF7ECFA801B022823
:102D00001FD828688007F7D42078000722D5864F7F
:102D100087486169703771B101210160FFF7DAFA04
:102D2000064604E0FFF7D6FA801B022809D8386867
:102D30008007F7D50EE0C0F800A0FFF7CBFA0646F3
:102D400005E082E0FFF7C6FA801B02287DD83868CC
:102D50008007F7D42078400768D5DFF8CCB100278A
:102D60000BF13C0BDBF80000C0000BD4DBF80010CB
:102D700041F08051CBF80010DBF80000012700F093
:102D8000805000906B4E3068C00510D4306840F41D
:102D900080703060FFF79EFA009005E0FFF79AFA26
:102DA0000099401A022850D83068C005F6D55E4E0A
:102DB000A0686C3601280FD00528306810D020F0AC
:102DC00001003060306820F004003060A068B8B1C5
:102DD000FFF780FA00900FE0306840F00100F4E760
:102DE00040F004003060F7E7FFF774FA0099411AE9
:102DF00041F28830814266D830688007F4D50EE011
:102E0000FFF768FA009007E0FFF764FA0099411AAB
:102E100041F28830814256D830688007F4D42FB10F
:102E2000DBF8001021F08051CBF80010A069C8B386
:102E30003D49091D0968C1F3810102294AD00228D0
:102E4000504607D0C8F8600000E03CE0FFF742FAC7
:102E500004463BE04746C8F86000FFF73BFA0646E9
:102E600005E000BFFFF736FA801B02282BD8286840
:102E70008001F7D4D4E907010843A16A2E4A490822
:102E800002EB0141626A41EA8211084394F82C1076
:102E900040EA0161C9F8001001203866FFF71AFA0C
:102EA000044606E03EE000BFFFF714FA001B0228CC
:102EB00009D828688001F7D534E000BFFFF70AFA87
:102EC000001B022802D90320BDE8F88F2868800182
:102ED000F4D427E00128F7D0D9F80000E26900F423
:102EE000800191421CD1226A00F03F01914217D12A
:102EF00047F6C071626A0140B1EB821F10D1A26A2D
:102F00004FF0FF3300F4403103EB5202B1EB024FBC
:102F100006D194F82C1000F07060B0EB016F01D076
:102F20000120D1E70020CFE70438024000004742EB
:102F3000800E4742007000400000FFFF70B50400A3
:102F400009D0606A002540B125616561A56294F8E9
:102F5000510040B10CE0012070BD6068B0F5827F87
:102F6000F4D0E561F2E784F85050204600F044F8D0
:102F7000022084F851002068016821F040010160BE
:102F8000A088218900F4827001F404410843A189DA
:102F900001F400610843217C01F002010843217D16
:102FA00001F001010843218B01F400710843217FE6
:102FB00001F03801084394F8201001F08001084323
:102FC000218D01F40051084321680860A0690421A3
:102FD00001EA104094F8241001F010010843216820
:102FE00048602068C16921F40061C1616565012004
:102FF00084F85100002070BD2DE9F04186B00646EE
:1030000014216846FDF726FC35493068884264D1B2
:1030100034480024016841F480510160006800F4E4
:10302000805005902F481438016841F0020101607A
:10303000016801F002010591016841F001010160A0
:103040000068022500F0010005901820CDE9000578
:1030500002AA03274FF0050882E89001694622483A
:10306000FFF73AF88020CDE9000502AA694682E818
:1030700090011E48FFF730F81E4D1D487F0628605E
:10308000C5E901744FF48068C5E903486C617812A2
:10309000AC61C5E9074028466C62FEF733FF08B112
:1030A000FEF7EDF8F564AE63124D11486035183047
:1030B000E5E802074020A5E81101C00245F81449DF
:1030C000AC61C5E907400B486C626030FEF71AFF3F
:1030D00008B1FEF7D4F8B564AE6306B0BDE8F08180
:1030E0000030014044380240000402400000024029
:1030F00040640240340700202DE9F84F044690F860
:10310000500000270A9E1D4692468B464FF001094B
:1031100001280ED0012084F85000FFF7DBF880462C
:1031200094F85100616801280CD0B1F5827F07D175
:1031300002E00220BDE8F88FA16809B9042801D097
:103140000227C2E0BBF1000F27D0BAF1000F24D054
:103150001DB394F85100042802D0052084F85100D2
:1031600000206065C4F838A0E587A587C4F830B0B2
:10317000E586A5862064606420680168490603D45A
:10318000016841F040010160E068B0F5006F6068DF
:1031900005D0E8B3012D46D07FE0012795E008B1C6
:1031A000012D39D1206B21680088C860206B801CFC
:1031B0002063E08E401EE0862EE02068816889074B
:1031C0000FD5E18E69B1B9F1010F0AD1216B0988E0
:1031D000C160206B801C2063E08E401EE0864FF0B3
:1031E000000920688168C9070CD0E18F51B1C0681F
:1031F000A16B0880A06B801CA063E08F401EE0875D
:103200004FF00109FFF766F8A0EB0800B04200E0BC
:1032100009E001D3701C50D1E08E0028CDD1E08FA1
:103220000028CAD13FE0206B216800780873206B2A
:10323000401C2063E08E401EE0862EE020688168FE
:1032400089070FD5E18E69B1B9F1010F0AD1216B60
:1032500009780173206B401C2063E08E401EE086DD
:103260004FF0000920688168C9070CD0E18F51B187
:10327000C068A16B0870A06B401CA063E08F401E6B
:10328000E0874FF00109FFF725F8A0EB0800B042F6
:1032900002D3701C01D010E07EB1E08E0028CDD1A9
:1032A000E08F0028CAD142463146204603F0E6FBB3
:1032B00028B101272020606507E0032705E0A0680A
:1032C00018B92068C16880680090012084F8510016
:1032D000002084F8500038462CE74FF0E021042805
:1032E000086903D020F004000861704740F0040032
:1032F000FAE77047704710B590F83C20012A22D0B9
:10330000012280F83C20CA688C6822F44072224373
:103310004C6822F4806222430C6822F4006222434B
:103320000C6922F4805222434C6922F40052224359
:10333000C969002322F480420A4301684A6480F884
:103340003C30002010BD022010BD000070B590F888
:103350003C20012A32D0012480F83C40022280F82F
:103360003D2003685A689D6822F070060A6832435F
:103370005A60134B02689A4214D0B2F1804F11D0B8
:10338000104B9A420ED0104B9A420BD00F4B9A42E0
:1033900008D00F4B9A4205D00E4B9A4202D00E4BEA
:1033A0009A4204D1496825F080031943916080F85E
:1033B0003D40002180F83C10084670BD022070BDE1
:1033C000000001400004004000080040000C0040E4
:1033D00000040140004001400018004010B5040006
:1033E00003D094F83D0010B107E0012010BD00208B
:1033F00084F83C00204600F01FF8022084F83D00CD
:10340000211D206803F0B4FC012084F8460084F8F4
:103410003E0084F83F0084F8400084F8410084F8BE
:10342000420084F8430084F8440084F8450084F89E
:103430003D00002010BD000008B521490268214868
:103440008A4207D1016841F001010160006800F083
:10345000010029E01B491C4B091F9A420ED1086844
:1034600040F0020008600868002200F002000090AE
:1034700005211D20FFF76EFA1D201CE0134B9A4218
:1034800008D1086840F004000860086800F00400F3
:10349000009008BD0E498A42FBD1016841F4003119
:1034A0000160006800F4003000900022052119201E
:1034B000FFF750FA1920BDE80840FFF73DBA0000B9
:1034C0000000014044380240000400400008004071
:1034D0000044014090F83D10012901D001207047BF
:1034E000022180F83D100168CA6842F00102CA60FA
:1034F00000681149884214D0B0F1804F11D00F49B3
:1035000088420ED00E4988420BD00E49884208D01E
:103510000D49884205D00D49884202D00C498842A5
:1035200004D1816801F00701062903D0016841F048
:1035300001010160002070470000014000040040CC
:1035400000080040000C0040000401400040014021
:103550000018004070B5044690F83C000025012892
:1035600017D0012684F83C60022084F83D002068D2
:10357000826822F0770222F47F4282600868502835
:1035800038D00DDC20284FD005DC90B3102811D1A5
:103590004AE0022070BD302846D040280AD13BE0E6
:1035A00060282FD070280DD0B0F5805F03D0B0F523
:1035B000005F12D0012584F83D60002084F83C00B3
:1035C000284670BDCB68D1E90121206803F041FC99
:1035D0002068816841F0770109E0CB68D1E90121D9
:1035E000206803F036FC2068816841F480418160E6
:1035F000E1E719E0CA684968206803F0FFFC502140
:10360000206806E0CA684968206803F008FD602168
:10361000206803F028FCCEE7CA684968206803F0F8
:10362000EDFC40212068F4E7226801461046F0E7EF
:10363000704770B50446006801694FF00005C94342
:10364000890715D4C168C943890711D4E91E0161EE
:1036500001202077206880698007204602D0FFF78C
:10366000E7FF04E000F0F8F8204600F08AF925773B
:1036700020680169C943490717D4C168C94349078C
:1036800013D46FF004010161022020772068806963
:1036900010F4407F204602D0FFF7CAFF04E000F09C
:1036A000DBF8204600F06DF9257720680169C943F1
:1036B000090716D4C168C943090712D46FF008017D
:1036C0000161042020772068C0698007204602D06D
:1036D000FFF7AEFF04E000F0BFF8204600F051F91C
:1036E000257720680169C943C90617D4C168C94351
:1036F000C90613D46FF010010161082020772068FB
:10370000C06910F4407F204602D0FFF791FF04E02B
:1037100000F0A2F8204600F034F92577206801690E
:10372000C943C90708D1C168C943C90704D1891E63
:103730000161204600F08AF920680169C943090641
:1037400009D4C168C943090605D46FF0800101613D
:103750002046FFF7CEFD20680169C943490609D418
:10376000C168C943490605D46FF040010161204694
:1037700000F073F920680169C94389060BD4C16858
:10378000C943890607D46FF0200101612046BDE8D6
:103790007040FFF7AFBD70BD30B587B0044614214F
:1037A0006846FDF757F82368234C0022234802217E
:1037B000A34210D1036843F010030360006800F0D7
:1037C0001000059008028DE807000120CDE90310E4
:1037D00069461B482DE01B4D0324AB4217D10368FB
:1037E00043F008030360006800F008000590281407
:1037F0008DE81700049169461348FEF76DFC00211F
:10380000124800F0BFF806F023FC07B030BD104DA1
:10381000AB42FAD1036843F020030360006800F074
:103820002000059040208DE80700CDE9031469468B
:103830000848FEF751FCE8E700000140303802403C
:103840000010024000080040000C0240F407002075
:103850000044014000140240704770B5044690F8DF
:103860003C0000260D4601280FD0012084F83C00C2
:103870006AB1042A1DD0082A2FD00C2A3FD0012675
:10388000002084F83C00304670BD022070BD2068E6
:1038900003F0F2FA2068816941F008018161206833
:1038A000816921F004018161206881692A691143DD
:1038B00011E0206803F010FB2068816941F4006189
:1038C00081612068816921F480618161206881695A
:1038D0002A6941EA02218161D2E7206803F032FBC4
:1038E0002068C16941F00801C1612068C16921F007
:1038F0000401C1612068C1692A69114311E020688F
:1039000003F054FB2068C16941F40061C161206883
:10391000C16921F48061C1612068C1692A6941EAF5
:103920000221C161ACE710B5040003D094F83D005A
:1039300010B107E0012010BD002084F83C002046B3
:1039400000F01EF8022084F83D00211D206803F0DD
:103950000FFA012084F8460084F83E0084F83F0006
:1039600084F8400084F8410084F8420084F8430061
:1039700084F8440084F8450084F83D00002010BD20
:103980007047704710B50446022249B104290ED091
:10399000082913D094F84100012816D0012010BD49
:1039A00094F83E000128F9D184F83E200FE094F805
:1039B0003F000128F2D184F83F2008E094F840004D
:1039C0000128EBD184F8402001E084F84120012255
:1039D000206803F031FA16492068164A884201D05F
:1039E000904203D1436C43F400434364206888420F
:1039F00013D0B0F1804F10D00F4988420DD00F493D
:103A000088420AD00E49884207D0904205D00D491D
:103A1000884202D00C49884204D1816801F0070134
:103A2000062903D0016841F001010160002010BDAA
:103A30000000014000040140000400400008004074
:103A4000000C004000400140001800400068B0F148
:103A5000804F01D1FEF7E6BE70477047704710B542
:103A600004460068406994F83D10C0F3C010212955
:103A700011D180B12068143050E8001F21F080017E
:103A800040E80012002AF5D1606B08B1FEF70FF98B
:103A9000204603F0BBFB2068406994F83E10C0F359
:103AA0008010222911D180B12068143050E8001F05
:103AB00021F0400140E80012002AF5D1A06B08B1C6
:103AC000FEF7F5F8204603F07AFB002010BD7047A2
:103AD000F8B5016804460868CA684B6910F00F0F12
:103AE0004FF0000559D003F0010602F490773743F8
:103AF00065D0C10705D0D10503D5216C41F0010186
:103B00002164410705D5D90703D0216C41F002019A
:103B10002164810705D5D90703D0216C41F0040148
:103B20002164010707D502F02001314303D0216C45
:103B300041F008012164216C00293AD0800604D5A7
:103B4000900602D5204603F06FFB20684069216C87
:103B5000C0F38010090700D460B3204603F02FFBA8
:103B600020684069400621D52068143050E8001FC5
:103B700021F0400140E80012002AF5D1A06BA8B165
:103B80006C490165A06BFEF7DBF8002811D0A06B33
:103B9000016D01B0BDE8F040084783060FD59306DC
:103BA0000DD52046BDE8F84003F03EBB2046FFF7A8
:103BB0008EFFF8BD2046FFF78AFF2564F8BD266B0F
:103BC0002023012E79D1C60677D5D60675D508688B
:103BD000486800904869400640D5A16B0868406875
:103BE0000004000CEAD0A28D8242E7D9E085C869C2
:103BF000B0F5807F2DD020680C3050E8001F21F4F4
:103C0000807140E80012002AF5D12068143050E895
:103C1000001F21F0010140E80012002AF5D12068C0
:103C2000143050E8001F21F0400140E80012002A43
:103C3000F5D184F83E30256320680C3050E8001F31
:103C400021F0100140E80012002AF5D1A06BFEF728
:103C50002EF8A08DE18D401A81B229E0A08DE18D72
:103C6000401A81B2E08D0028A8D00029A6D0206893
:103C70000C3050E8002F22F4907240E80026002E0D
:103C8000F5D12068143050E8002F22F0010240E8FE
:103C90000026002EF5D184F83E30256320680C30D4
:103CA00050E8002F22F0100240E80023002BF5D14D
:103CB0002046FFF7D3FEF8BDFFE705062BD5150616
:103CC00029D594F83D002128F5D1A068B0F5805F92
:103CD00001D12069B0B1206A411C216221680078BD
:103CE0004860E08C401E0004000CE084E3D12068B2
:103CF000C16821F08001C1602068C16841F04001C5
:103D0000C160D8E7206A0088C0F308004860206AD4
:103D1000801C2062E5E74006CDD55006CBD5CA68A9
:103D2000204622F04002CA6084F83D3000F085F958
:103D3000C1E70000C970000870B5040004D094F811
:103D40003D00002510B106E0012070BD84F83C5014
:103D5000204600F023F8242084F83D002068C16844
:103D600021F40051C160204603F0BEFA20680169C9
:103D700021F4904101612068416921F02A014161EB
:103D80002068C16841F40051C1602564202084F896
:103D90003D0084F83E00002070BD00002DE9F04F8A
:103DA00087B0054614216846FCF754FD574B296837
:103DB000574802260322072700244FF4003B4FF008
:103DC00000694FF4806A994268D1514914310B68F7
:103DD00043F010030B60096801F0100105910168C0
:103DE00041F002010160016801F0020105910168E2
:103DF00041F0010101600068CDE9024200F00100DC
:103E000005908020CDE90006904669460497414818
:103E1000FEF762F93002CDE90006CDE902486946B5
:103E200004973D48FEF758F93D4E3C484F463060F8
:103E3000C6E90194C6E9034A7461B461C6E9074B57
:103E4000D04630467462FEF75DF808B1FDF717FA08
:103E5000AE63B563324E314860363030E6E8020773
:103E60004020A6E81101800246F81449B461C6E971
:103E700007402B4874626030FEF744F808B1FDF744
:103E8000FEF96E63002205212520B563FEF762FD71
:103E90002520FEF751FD07B0BDE8F08F214B994278
:103EA000F9D11B4910310B6843F480230B6009687A
:103EB00001F480210591016841F00401016000686E
:103EC000CDE9024200F0040005904FF44060CDE9D6
:103ED0000006694604971448FEF7FEF8104E134892
:103EE000C0363060C6E90194C6E9034A80157461A2
:103EF000C6E90640C6E908B43046FEF703F808B143
:103F0000FDF7BDF9AE63B563C5E7000000100140E1
:103F10003038024000040240000002408864024041
:103F2000F8090020004800400008024028600240D4
:103F300090F83E30202B0ED159B152B190F83C3060
:103F4000012B08D0012380F83C300023036303F0E9
:103F500051BA012070470220704790F83E30202B64
:103F60000ED159B152B190F83C30012B08D0012349
:103F700080F83C300023036303F086BA01207047C9
:103F800002207047704770472DE9F843044690F8C7
:103F90003D001F4616460D4620284CD1C5B1BEB186
:103FA00094F83C00012846D0012084F83C004FF0F2
:103FB0000008C4F84080212084F83D00FEF78AF90B
:103FC000A6848146E684A068B0F5805F03D004E053
:103FD0000120BDE8F883206928B12E465FF0000576
:103FE00084F83C800EE00026FAE78021204603F0AA
:103FF00068FAA0B9AEB116F8010B21684860E08CF0
:10400000401EE084E08C4B464FF0000200970028F1
:10401000EBD14FF04001204603F053FA30B10320BA
:10402000D7E735F8020BC0F30800E6E7202084F854
:104030003D000020CDE70220CBE77047FEE7016896
:104040004A69D24352050FD46FF480624A6100215D
:1040500040F8301F202242738173026942F004024B
:104060000261017301207047002070472DE9F84F6D
:104070000446006889460B9D01689846174641F43E
:10408000806101602068016841F4807101600095E1
:104090004FF0011B0022594620460A9B00F0DEF833
:1040A0004FF4007A40B120680068C00501D5C4F81B
:1040B00040A00320BDE8F88F216809F0FE000861E8
:1040C0002B46284920460A9A00F0FCF8F0BB2068ED
:1040D0004169806900902A4620460A9900F070F9EB
:1040E00040B1206C04283AD12068016841F4007185
:1040F000016034E0FEB2B8F1010F09D02168380A3E
:1041000008612A4620460A9900F05AF90028E8D1A9
:10411000206806612A4620460A9900F051F90028D5
:10412000DFD12068016841F48071016000950022B0
:10413000594620460A9B00F091F80028B3D1216827
:1041400009F0FF0040F00100086100E007E02B46A5
:10415000044920460A9A00F0B5F80028AAD00120A8
:10416000A8E70000020001002DE9F84304460068BA
:104170000D46DDE9089701689846164641F48071BE
:1041800001604B4600224FF001112046009700F0DD
:1041900065F848B120680068C00502D54FF400708A
:1041A00020640320BDE8F883216805F0FE00086163
:1041B0003B464A461549204600F084F888B92068F5
:1041C0004169806900903A464946204600F0F8F877
:1041D00048B1206C042804D12068016841F40071C2
:1041E00001600120DEE7F5B2B8F1010F09D02168C6
:1041F000300A08613A464946204600F0E1F80028B6
:10420000E7D1206805610020CCE700000200010032
:1042100070B516460D4604460DE02046FFF70FFF29
:1042200008B1012070BD681C05D0FEF753F8801B53
:10423000A84207D835B120684069C0434007ECD494
:10424000002070BD002044F8300F20216173A0735E
:10425000216941F0200121612073E2E72DE9F04757
:104260001E4690460D460446C1F30747DDF82090F0
:1042700008E0701C06D0FEF72DF8A0EB0900B04254
:104280000FD876B12068012F18D0806925EA000088
:104290000004000C14D000214145EAD00020BDE804
:1042A000F087002044F8300F20216173A07321694A
:1042B00041F02001216120730120F0E74069E5E72A
:1042C0000121E9E72DE9F0479A4691460E4604465A
:1042D00000254FF02008C1F3074725E0206840691A
:1042E000C043400514D42068016841F400710160A6
:1042F00021686FF480604861256384F83D8084F80C
:104300003E50206C40F00400206484F83C501FE0D4
:10431000B9F1FF3F08D0FDF7DDFFA0EB0A014945E9
:104320000CD8B9F1000F09D02068012F13D0806993
:1043300026EA00000004000C0BD0CFE744F8305F01
:1043400084F80D80A573206940F02000206125735A
:104350000120BDE8F0874069EAE72DE9F04100253A
:1043600090460E460446202717E04069C043C00629
:104370000CD454F8301B6FF01000486144F8105909
:104380006777A577206A2062257717E0FDF7A2FFFF
:10439000A0EB0800B04208D83EB120684169C9438B
:1043A0004906E2D40020BDE8F08144F8305F67732D
:1043B000A573206940F02000206125730120F2E7F9
:1043C00070B516460D4604460DE02046FFF737FE51
:1043D00008B1012070BD681C05D0FDF77BFF801B74
:1043E000A84207D835B120684069C0430006ECD424
:1043F000002070BD002044F8300F20216173A073AD
:10440000216941F0200121612073E2E72DED028B4B
:1044100084B0072000E0642006F044FCFCF7EEFBCB
:104420000028F8D102E0642006F03CFC04F066FEAF
:104430000028F8D1C24A101DCDE90102A2F1100AEC
:104440000AF10401FCF7F2FB5346A3F14C020AF116
:104450003C0BA2F10C01A1F10C00CDF800B004F06E
:104460008DFCB8490AF158000022DFEDB70A9FED34
:10447000B70A027091ED001A80ED011A91ED011A50
:1044800080ED021A91ED021A80ED031AC0ED040AC4
:1044900080ED050A9FEDAE0AA0F1A40280ED0E0AA0
:1044A00080ED0D0A80ED0C0A80ED080A80ED0B0A04
:1044B00080ED0A0A80ED090A80ED110A80ED100AEC
:1044C00080ED0F0AA0F1B0019838FCF7A7FAAAF125
:1044D0005808A8F1180598ED000AA5F10C0685ED1D
:1044E000000AA5F1180986ED000A89ED000A98ED89
:1044F000010A002085ED010A86ED010A89ED010A15
:1045000098ED020A85ED020A86ED020A89ED020A9B
:1045100005F0B6F807F018FA8E4C8F49206110208C
:10452000C8610846FEF70AFD04F150010822A1F116
:10453000080002F02DFA012084F804004FF0FF314A
:10454000012006F0D5F90128F8D12078400708D5D8
:10455000207820F0040020707E4801995130FCF74B
:104560001DFB607840070BD5607820F00400607078
:10457000734A0AF104011032A2F12A00FCF7C4FACE
:10458000A07840070CD5A07820F00400A0707148F6
:1045900002991630FCF724FC9AED040A04F0E8FCBA
:1045A000674BCDF800B0103BA3F14C02A2F10C0117
:1045B000A1F10C0004F0E2FB96ED001A89ED001A5F
:1045C000D5ED000AC6ED000A9FED640A60EE801A80
:1045D000DFED630A98ED002A41EE201A9FED611A83
:1045E000574F743F42EE011AC5ED001AD6ED011A7D
:1045F000C9ED011A95ED012A86ED012A22EE002A65
:1046000001EEA02AD8ED011A01EE812A85ED012ADA
:10461000D6ED021AC9ED021A95ED022A86ED022A9C
:1046200022EE000A01EEA00AD8ED020A00EE810A8D
:1046300085ED020AD7ED000A94ED090A10EE900A02
:1046400070EE801AB7EE000AC4ED091A94ED0B1A49
:1046500031EE001A84ED0B1A81EE812A84ED0A2ACC
:1046600097ED018A94ED0C1A78EE011AC4ED0C1A3C
:1046700094ED0E1A31EE001A84ED0E1A81EE812AA5
:1046800084ED0D2AD7ED028A94ED0F1A38EE811AC7
:1046900084ED0F1AD4ED111A31EE800A84ED110A5F
:1046A000C1EE001AC4ED101A07F0B2FF9FED2E1BE9
:1046B00053EC112B07F0C2FE07F05AFB386018EEDE
:1046C000100A07F0A5FF9FED2A1B53EC112B07F0F2
:1046D000B5FE07F04DFB786018EE900A07F098FFE2
:1046E0009FED251B53EC112B07F0A8FE07F040FBB4
:1046F00007F118033946B860A3F124029FED200AA0
:1047000001F12400FCF79AF907F13C031A1F111F6D
:10471000A1F1100003F08CFE07F1400003F0E0FE71
:10472000E07810F00100E0703FF408AFE07820F08E
:104730000100E070E07840F00200E070FEE600006A
:10474000C47D0020B0CF000800A08C4500808945C2
:10475000000000006C040020DC0600205AF8F63F40
:104760005D896EBFD5A9183BEC12E57F3B22803FE7
:10477000F50107807E114FBF7005937F61246B3F69
:104780006F12833A10B5114886B00024016841F0D9
:10479000020101600068694600F0020005904FF4D4
:1047A0007040009001200190029002200390084880
:1047B000FDF792FC0748C0F8B042C0F8B442C0F818
:1047C000BC42C0F8B84206B010BD0000303802400C
:1047D000000402400080404241F6112303E01946E4
:1047E000491EFDD2401E0028F9D1704770B506461B
:1047F0005FF0000404F1B000C0B200F053F80020F4
:1048000000F050F8102000F04DF80025304600F080
:1048100067F86D1CEDB2822DF8D3641CE4B2082C4D
:10482000E8D370BD2DE9F04790468A46054600263C
:10483000DFF848901CE02038C7B27E2D04D90AF179
:104840000100002500F0FF0A5146284600F018F844
:1048500007EB4700002409EB4007385D00F040F803
:10486000641CE4B2062CF8D3AD1D761CEDB2F6B292
:1048700018F806000028DED1BDE8F08796C70008CA
:1048800010B50446B031C8B200F00CF8102040EA70
:10489000141000F007F804F00F00BDE8104000F01D
:1048A00001B8000030B50D4908220023C1F8B83224
:1048B000C1F8B03201240DE0050602D5C1F8B442BA
:1048C00001E0C1F8B432C1F8B04200BFC1F8B03263
:1048D0004006000E521ED2B2EED230BD00804042E1
:1048E00030B50D4908220124C1F8B8420023C1F8AF
:1048F000B0320DE0050602D5C1F8B44201E0C1F8BE
:10490000B432C1F8B04200BFC1F8B0324006000E68
:10491000521ED2B2EED230BD008040420F4810B5D8
:104920000D4901600321416000214FF41022816094
:10493000C0E903124FF4001242610176417681769C
:10494000C17601774177FDF738F8002803D0BDE83C
:104950001040FCF794BC10BD006400400806002025
:104960000F4810B50D4901600321416000214FF44B
:1049700010228160C0E903124FF4001242610176F7
:1049800041768176C17601774177FDF716F80028E8
:1049900003D0BDE81040FCF772BC10BD00680040B9
:1049A000300600201D4808B5016841F4001101607F
:1049B000016801F400110091016841F48001016077
:1049C0000068002200F48000009005210C20FDF713
:1049D000C1FF0C20FDF7B0FF002205213A20FDF7B2
:1049E000B9FF3A20FDF7A8FF002205213B20FDF783
:1049F000B1FF3B20FDF7A0FF002205214420FDF779
:104A0000A9FF4420FDF798FF002205214620FDF76D
:104A1000A1FFBDE808404620FDF78EBF30380240B8
:104A200010B5074A0021074804F0CAFD064C044AA5
:104A3000002120602432054804F0C2FD606010BDF2
:104A400008C70008756C00080000002035A80008A1
:104A50002DE9F04786B014216846FBF7FBFE554868
:104A60004FF0000A016841F002010160016801F0A5
:104A700002010591016841F001010160016801F046
:104A800001010591016841F008010160016801F030
:104A900008010591016841F004010160016801F01D
:104AA00004010591016841F080010160016801F095
:104AB00080010591016841F040010160016801F049
:104AC00040010591016841F020010160016801F099
:104AD00020010591016841F0100101600068364F26
:104AE00000F010004FF4E0560590002231463846A1
:104AF000FDF7EAFBDFF8C480012210214046FDF7F4
:104B0000E3FBDFF8BC90002201214846FDF7DCFB07
:104B100049204FF48815CDE9000501246946029427
:104B20002848FDF7D9FA0320CDE90240CDE9006419
:104B300069463846FDF7D0FA1020CDE90004CDE9EA
:104B4000024A69464046FDF7C7FA3020CDE9000524
:104B5000694602941C48FDF7BFFA0220CDE90240E5
:104B60000094694601944846FDF7B6FA00220521F3
:104B70000620FDF7EFFE0620FDF7DEFE00220521F0
:104B80000920FDF7E7FE0920FDF7D6FE00220521EA
:104B90000A20FDF7DFFE0A20FDF7CEFE00220521E8
:104BA0001720FDF7D7FE1720FDF7C6FE06B0BDE8BB
:104BB000F087000030380240001C02400000024034
:104BC0000004024000180240000802400D4810B5E1
:104BD0000B4901600C49416000214FF48042816023
:104BE000C0E9031241618161C1610162FDF778FB97
:104BF000002803D0BDE81040FCF741BB10BD000009
:104C0000005C004088060020A0860100104810B516
:104C10000E4901604FF48271416000218160C160E2
:104C20004FF400720161C0E905123822C0E9072182
:104C3000416281620A21C162FEF780F9002803D037
:104C4000BDE81040FCF71BBB10BD00000030014068
:104C5000DC06002010B588B01C216846FBF7FAFD81
:104C6000154814490024C0E9001441F28731C0E915
:104C7000024104618461FEF7B1FB08B1FCF7FFFA61
:104C80000D48FEF750FE08B1FCF7F9FA60200090DD
:104C900040F6C410CDE90104002269460648049498
:104CA000FEF7DBFD08B1FCF7EAFA0348FEF774FDF6
:104CB00008B010BD00440140CC08002010B596B0EB
:104CC00000240F9410941194129413941C2108A89A
:104CD0001494FBF7BFFD20216846FBF7BBFD294874
:104CE000274901605321C0E9011444F61F61C0E95E
:104CF000031444618461FEF771FB08B1FCF7BFFA4D
:104D00004FF480500F900FA91E48FEF723FC08B106
:104D1000FCF7B5FA1B48FEF706FE08B1FCF7AFFA40
:104D2000139413A917481494FEF710FB08B1FCF76D
:104D3000A6FA6020089042F21070CDE909040B94A5
:104D40000C940D94002208A90E480E94FEF785FDE0
:104D500008B1FCF794FA00944FF40050CDE90440F8
:104D6000029401940394694606480794FEF7C3FA37
:104D700008B1FCF784FA0348FEF70EFD16B010BD2B
:104D800000000140F407002010B586B0002416484A
:104D900000940194029403940494124905940160D0
:104DA0005321C0E901143121C0E903148461FEF7E5
:104DB00015FB08B1FCF763FA4FF480500090694688
:104DC0000948FEF7C7FB08B1FCF759FA049404A997
:104DD00005480594FEF7BAFA002801D0FCF74FFA0F
:104DE00006B010BD000400403C08002010B58EB095
:104DF00000240794089409940A940B941C21684693
:104E00000C94FBF727FD1E481C4901605321C0E9A3
:104E10000114FA21C0E903148461FEF7DFFA08B136
:104E2000FCF72DFA4FF48050079007A91448FEF7BD
:104E300091FB08B1FCF723FA1148FEF774FD08B1A5
:104E4000FCF71DFA0B940BA90D480C94FEF77EFAA3
:104E500008B1FCF714FA602000907D20CDE9010430
:104E60000822694606480494FEF7F7FC08B1FCF7EF
:104E700006FA0348FEF790FC0EB010BD0008004093
:104E8000840800200C4810B50A4901604FF4E13154
:104E90004160002181600C22C160C0E9041281617F
:104EA000C161FEF749FF002803D0BDE81040FCF7C0
:104EB000E6B910BD00100140700900200D4810B582
:104EC0000B4901600C49416000214FF48062816010
:104ED000C0E903120422C0E90521C161FEF72CFFDD
:104EE000002803D0BDE81040FCF7C9B910BD000090
:104EF00000480040B4090020A086010010B5044617
:104F00002DED108BF0EE43BAB0EE448AF5EEC0BA48
:104F1000F0EE638AB0EE629AB0EE42BAB0EE61CAC9
:104F2000F0EE419AB0EE60AAF0EE40AAF1EE10FA6F
:104F300084B01CD1F5EEC08AF1EE10FA17D1B5EEAF
:104F4000C08AF1EE10FA12D104B0F0EE492AB0EEA8
:104F50004B2AF0EE4C1AB0EE691AF0EE4A0AB0EEA7
:104F60006A0ABDEC108BBDE8104000F083B9B5EEC5
:104F7000C0CAF1EE10FA09D1B5EEC0BAF1EE10FADE
:104F800004D1B5EEC09AF1EE10FA7CD02CEE0C0AEA
:104F90000BEE0B0A09EE090A04F028F82CEE00FAD1
:104FA0006BEE00EA29EE00EA2BEEAB0A08EEA80A47
:104FB00008EE080A04F01AF8D4ED001A2BEE809AD5
:104FC00068EE808A21EEA12A28EE008AF0EE00FA2F
:104FD0008DED032A94ED030AD4ED020A94ED011A33
:104FE00021EE802A60EEA0DA21EE00CA60EE80BADF
:104FF00020EE00BAB6EE000A61EE202A30EE6D0A0D
:1050000061EEA0CA21EE81DA61EE011A30EE4B4A60
:105010007CEE2C0AB6EE001A8DED024A24EE090A47
:1050200032EEC24A71EE611A8DED014A08EE840A31
:1050300031EECB1ACDED001A08EE200A72EE820A8C
:1050400060EE890A20EE2F0A48EE810A3BEECD1A67
:1050500020EE000A48EE010A60EEAF0A00EEA00A58
:1050600010EE100A07F0D4FA41EC100B02F0E0FC4D
:1050700051EC100B06F07CFE3CEE6C0A00EE900A40
:1050800020EE091A00E08EE07BEE8D1A9DED032ADA
:105090009DED024A734808EEA11ADDED001A31EECB
:1050A000ED3AF6EE001A72EE611A08EE031A71EE8E
:1050B0008B3A64EE201A9DED014A61EE2F2A3DEEF7
:1050C0002B1A24EE202A3CEE8C4A42EE801A02EE85
:1050D000812A64EE200A42EE830A6EEEA32A4EEE87
:1050E000412A28EEA03A2FEE011A08EE423A0EEEBF
:1050F000C01A72EE832A2EEE003A29EE020A0FEE53
:10510000633A68EE213A08EEE10A49EE603A31EE80
:10511000000A90ED011A73EE230AB5EEC01AF1EE03
:1051200010FA2CDD90ED011AD0ED021A21EE222AA0
:105130009FED4D1A42EE011AC0ED021AD0ED011A90
:1051400021EEA02AD0ED031A42EE011AC0ED031A97
:10515000D0ED011A21EE802AD0ED041A42EE011A98
:10516000C0ED041A90ED021A7AEE81AA90ED031AAE
:105170003AEE01AA90ED041A79EE819A07E09FEDCC
:105180003B1A80ED021A80ED031A80ED041A90EDAF
:10519000001A41EE22AA90ED001A01EE20AAD0EDED
:1051A000000A40EE809A9FED320A94ED021A94EDC7
:1051B000033A6AEE801A2AEE002A69EE802A94EDFC
:1051C000010AD4ED000A60EE613A20EE824A41EE17
:1051D000423A00EE624A43EE623A03EE214A73EE2F
:1051E000A04A60EEA13A60EEA20A34EE014AC4ED94
:1051F000004A41EE223A40EE020A43EE423A41EEC4
:10520000610A73EE803A24EEA40A70EE830AC4EDBC
:10521000013A84ED024A03EEA30AC4ED030A04EE48
:10522000040A00EEA00A03F0E1FED4ED000A60EEED
:10523000800AC4ED000AD4ED010A60EE800AC4EDD4
:10524000010AD4ED020A60EE800AC4ED020AD4ED30
:10525000030A20EE800A84ED030A04B0BDEC108B33
:1052600010BD0000C40200206F12833A000000004D
:105270006F12033A10B504462DED068BF0EE61AACD
:10528000F0EE629AF5EEC0AAB0EE42AAB0EE418A04
:10529000F0EE608AB0EE409AF1EE10FA09D1B5EE68
:1052A000C0AAF1EE10FA04D1F5EEC09AF1EE10FAB0
:1052B00078D02AEEAA0A0AEE0A0A09EEA90A03F031
:1052C00095FE2AEE804A6AEE003A29EE803A94ED85
:1052D000012A94ED030AD4ED001AD4ED020A22EE5D
:1052E000001A21EE822A5E4801EEE01A00EE802AC2
:1052F000F6EE000A51EEA10A63EE011A40EE000A32
:1053000024EE020A03EEC10A63EEA02A44EE601AFC
:10531000D0ED010A43EE422AF5EEC00AF1EE10FA92
:105320002CDDD0ED010A90ED021A20EEA22ADFED6D
:105330004D0A02EE201A80ED021A90ED011A21EEBC
:10534000212A90ED031A02EE201A80ED031A90ED47
:10535000011A21EE002A90ED041A02EE201A80EDC7
:10536000041AD0ED020A39EE209AD0ED030A78EE45
:10537000A08AD0ED040A38EE208A07E0DFED3A0A71
:10538000C0ED020AC0ED030AC0ED040AD0ED000A28
:1053900000EEA29AD0ED000A40EEA18AD0ED000AFC
:1053A00000EE808A9FED310AD4ED000A94ED021AD6
:1053B00069EE001A28EE802A68EE002A94ED010AB0
:1053C00020EEA14A94ED033A60EE613A01EE224AE2
:1053D00041EE423A03EE424A43EE623A74EE004A2C
:1053E00020EE824A73EEA03A60EEA20A00EE624A14
:1053F000C4ED003A40EE020A23EEA30AC4ED014ACE
:1054000003EE214A04EEA40A41EE610A34EE014A99
:1054100070EE830A84ED024A04EE040AC4ED030A26
:1054200000EEA00A03F0E2FDD4ED000A60EE800A6F
:10543000C4ED000AD4ED010A60EE800AC4ED010A51
:10544000D4ED020A60EE800AC4ED020AD4ED030A2C
:1054500020EE800A84ED030ABDEC068B10BD00002F
:10546000C40200206F12833A000000006F12033A5A
:10547000FEE7FEE7D0ED031AC0ED041AD0ED020AF4
:10548000C0ED030A90ED000A90ED011A30EE410ADA
:1054900080ED020A90F83C10012901D0E9B142E008
:1054A00090ED061A30EE602A21EE001A80ED081AFF
:1054B000D0ED052A02EE821AB0EE002A00EEC20AF2
:1054C000D0ED070A30EE210A00EE801A90ED0A0AAC
:1054D00031EE000A80ED0A0A25E090ED081AD0EDC1
:1054E000061A01EE801A80ED081AD0ED091AB4EE02
:1054F000E11AF1EE10FA06DCF1EE611AB4EEE11AEF
:10550000F1EE10FA01D2C0ED081A90ED081AD0EDB4
:10551000051A01EE801A30EE600AD0ED070A00EE9F
:10552000801A80ED0A1AD0ED0A0A90ED0B0AF4EE0B
:10553000C00AF1EE10FA06DCB1EE400AF4EEC00A41
:10554000F1EE10FA01D280ED0A0A70479FED080AC9
:1055500080ED000A80ED010A80ED020A80ED030A69
:1055600080ED040A80ED080A80ED0A0A7047000009
:1055700000000000A0B1D0ED101AC0ED111A90ED9E
:105580000F1A80ED101AC0ED060A80ED070A30EE02
:10559000C00A80ED0F0A017829B101293BD078E0DB
:1055A0009FED3D0A7047D0ED010A60EE801AC0ED14
:1055B000091AD0ED0A0A90ED022A42EE000A30EEF6
:1055C000410AC0ED0A0A90ED0D2A80ED0E2A90EDF9
:1055D0000C2A80ED0D2A80ED0C0A90ED031A21EEC5
:1055E000001A80ED0B1A90ED050AF4EEC00AF1EEF8
:1055F00010FA09DCB1EE400AF4EEC00AF1EE10FA3E
:1056000002D390ED0A0A01E080ED0A0A31EE800A29
:1056100030EE010A2BE070EE410A90ED012A20EEF7
:10562000822A80ED092AD0ED020A60EE800AC0EDE0
:105630000A0AD0ED0D2A72EE200AC0ED0E2AD0ED36
:105640000C2AC0ED0D2AF0EE002A01EE620A30EEBF
:10565000210A80ED0C0A90ED031A21EE000A80ED7C
:105660000B0A30EE800AD0ED080A30EE200A80EDF9
:10567000080AD0ED040AB4EEE00AF1EE10FA06DCF6
:10568000F1EE600AB4EEE00AF1EE10FA01D2C0EDDC
:10569000080A90ED080A704700000000002801DCAD
:1056A000404200B27047000070B51C4CB4F90000D5
:1056B000FFF7F4FF4FF42F75A84217D8B4F9020092
:1056C000FFF7ECFFA84211D8B4F90400FFF7E6FF9A
:1056D000A8420BD8B4F90600FFF7E0FFA84205D8AE
:1056E000A07C032802D8E07C032816D95020EFF3D1
:1056F000118180F31188BFF34F8FBFF36F8F0020AC
:1057000020806080A080E0800222A274E274A081E8
:10571000E0812082E08281F3118870BD447800200E
:105720002DE9F74FFA4981B00868026822F00102BA
:10573000026001F160000268136823F00103136046
:1057400003E00A6822F001020A60F14909680A6868
:10575000D207F6D103E0016821F001010160EC48B5
:10576000603000680168C907F5D1E948E94A58384E
:10577000E94BD0F84C90E74CE74DE64EE64FDFF8AA
:1057800094E3DFF890C3D9F80000E349483A603366
:1057900018341835303E78374FF4006A0CF1300C6D
:1057A000704535D9884205D0904203D0984201D047
:1057B000A04201D1202026E0A84205D0B04203D06B
:1057C000B84201D0604501D150461CE0DFF8488363
:1057D00008F13008404511D0DFF83883A8F11808E7
:1057E00040450BD0DFF8308308F19008404505D0E4
:1057F000DFF8208308F14808404502D14FF400103B
:1058000001E04FF00060DFF80C83A8F14C083AE0AB
:10581000DFF8048308F1A808404537D9884205D04D
:10582000904203D0984201D0A04201D1202026E02E
:10583000A84205D0B04203D0B84201D0604501D1A2
:1058400050461CE0DFF8D08208F13008404511D006
:10585000DFF8C082A8F1180840450BD0DFF8B88205
:1058600008F19008404505D0DFF8A88208F1480803
:10587000404502D14FF4001001E04FF00060DFF826
:105880009482A8F15008C8F8000074E0DFF888821C
:1058900008F14808404537D9884205D0904203D0E6
:1058A000984201D0A04201D1202026E0A84205D094
:1058B000B04203D0B84201D0604501D150461CE04F
:1058C000DFF8548208F13008404511D0DFF84482F7
:1058D000A8F1180840450BD0DFF83C8208F1900889
:1058E000404505D0DFF82C8208F14808404502D138
:1058F0004FF4001001E04FF00060DFF81C82A8F1C7
:105900001008C8F80C0036E0884205D0904203D059
:10591000984201D0A04201D1202026E0A84205D023
:10592000B04203D0B84201D0604501D150461CE0DE
:10593000DFF8E48108F13008404511D0DFF8D48168
:10594000A8F1180840450BD0DFF8CC8108F1900889
:10595000404505D0DFF8BC8108F14808404502D138
:105960004FF4001001E04FF00060DFF8AC81A8F1C7
:105970001008C8F80800D9F800004FF4806B704593
:1059800035D9884205D0904203D0984201D0A04238
:1059900001D1102026E0A84205D0B04203D0B84281
:1059A00001D0604501D158461CE0DFF86C8108F158
:1059B0003008404511D0DFF85C81A8F11808404557
:1059C0000BD0DFF8548108F19008404505D0DFF88E
:1059D000448108F14808404502D14FF4801001E0AD
:1059E0004FF08060DFF82C81A8F14C083AE0DFF836
:1059F000288108F1A808404537D9884205D090424F
:105A000003D0984201D0A04201D1102026E0A84244
:105A100005D0B04203D0B84201D0604501D158460C
:105A20001CE0DFF8F48008F13008404511D0DFF8C1
:105A3000E480A8F1180840450BD0DFF8DC8008F1BD
:105A40009008404505D0DFF8CC8008F14808404573
:105A500002D14FF4801001E04FF08060DFF8B48095
:105A6000A8F15008C8F8000077E0DFF8AC8008F132
:105A70004808404537D9884205D0904203D0984223
:105A800001D0A04201D1102026E0A84205D0B042AA
:105A900003D0B84201D0604501D158461CE0DFF880
:105AA000788008F13008404511D0DFF86880A8F10F
:105AB000180840450BD0DFF8608008F19008404599
:105AC00005D0DFF8508008F14808404502D14FF476
:105AD000801001E04FF08060DFF83C80A8F11008F2
